{
  "contractName": "SimpleStorage",
  "abi": [
    {
      "constant": true,
      "inputs": [
        {
          "internalType": "address",
          "name": "",
          "type": "address"
        }
      ],
      "name": "status",
      "outputs": [
        {
          "internalType": "string",
          "name": "",
          "type": "string"
        }
      ],
      "payable": false,
      "stateMutability": "view",
      "type": "function"
    },
    {
      "constant": true,
      "inputs": [
        {
          "internalType": "address",
          "name": "",
          "type": "address"
        },
        {
          "internalType": "uint256",
          "name": "",
          "type": "uint256"
        }
      ],
      "name": "users",
      "outputs": [
        {
          "internalType": "uint256",
          "name": "recordCount",
          "type": "uint256"
        },
        {
          "internalType": "string",
          "name": "_firstName",
          "type": "string"
        },
        {
          "internalType": "string",
          "name": "_lastName",
          "type": "string"
        },
        {
          "internalType": "string",
          "name": "doctor",
          "type": "string"
        },
        {
          "internalType": "string",
          "name": "treatmentSite",
          "type": "string"
        },
        {
          "internalType": "string",
          "name": "date",
          "type": "string"
        },
        {
          "internalType": "string",
          "name": "ipfsHash",
          "type": "string"
        }
      ],
      "payable": false,
      "stateMutability": "view",
      "type": "function"
    },
    {
      "constant": false,
      "inputs": [
        {
          "internalType": "address",
          "name": "_address",
          "type": "address"
        },
        {
          "internalType": "string",
          "name": "_doctor",
          "type": "string"
        },
        {
          "internalType": "string",
          "name": "_site",
          "type": "string"
        },
        {
          "internalType": "string",
          "name": "x",
          "type": "string"
        },
        {
          "internalType": "string",
          "name": "_firstName",
          "type": "string"
        },
        {
          "internalType": "string",
          "name": "_lastName",
          "type": "string"
        },
        {
          "internalType": "string",
          "name": "_date",
          "type": "string"
        }
      ],
      "name": "set",
      "outputs": [],
      "payable": false,
      "stateMutability": "nonpayable",
      "type": "function"
    },
    {
      "constant": false,
      "inputs": [
        {
          "internalType": "address",
          "name": "_address",
          "type": "address"
        },
        {
          "internalType": "string",
          "name": "_status",
          "type": "string"
        }
      ],
      "name": "setUser",
      "outputs": [],
      "payable": false,
      "stateMutability": "nonpayable",
      "type": "function"
    },
    {
      "constant": true,
      "inputs": [
        {
          "internalType": "address",
          "name": "_address",
          "type": "address"
        }
      ],
      "name": "getUser",
      "outputs": [
        {
          "internalType": "string",
          "name": "",
          "type": "string"
        }
      ],
      "payable": false,
      "stateMutability": "view",
      "type": "function"
    },
    {
      "constant": true,
      "inputs": [
        {
          "internalType": "address",
          "name": "_address",
          "type": "address"
        }
      ],
      "name": "getRecords",
      "outputs": [
        {
          "components": [
            {
              "internalType": "uint256",
              "name": "recordCount",
              "type": "uint256"
            },
            {
              "internalType": "string",
              "name": "_firstName",
              "type": "string"
            },
            {
              "internalType": "string",
              "name": "_lastName",
              "type": "string"
            },
            {
              "internalType": "string",
              "name": "doctor",
              "type": "string"
            },
            {
              "internalType": "string",
              "name": "treatmentSite",
              "type": "string"
            },
            {
              "internalType": "string",
              "name": "date",
              "type": "string"
            },
            {
              "internalType": "string",
              "name": "ipfsHash",
              "type": "string"
            }
          ],
          "internalType": "struct SimpleStorage.Records[]",
          "name": "",
          "type": "tuple[]"
        }
      ],
      "payable": false,
      "stateMutability": "view",
      "type": "function"
    },
    {
      "constant": false,
      "inputs": [
        {
          "internalType": "uint256",
          "name": "i",
          "type": "uint256"
        },
        {
          "internalType": "address",
          "name": "toAddress",
          "type": "address"
        }
      ],
      "name": "setPermission",
      "outputs": [],
      "payable": false,
      "stateMutability": "nonpayable",
      "type": "function"
    }
  ],
  "bytecode": "0x608060405234801561001057600080fd5b50611d0f806100206000396000f3fe608060405234801561001057600080fd5b506004361061007d5760003560e01c8063645b8b1b1161005b578063645b8b1b146100f05780636f77926b1461012057806389ea280f14610150578063a0076e841461016c5761007d565b80632f980a4a146100825780633f1a51b81461009e57806354a02f9e146100ba575b600080fd5b61009c600480360361009791908101906117f9565b61019c565b005b6100b860048036036100b3919081019061163b565b6107d2565b005b6100d460048036036100cf91908101906117bd565b610862565b6040516100e79796959493929190611aac565b60405180910390f35b61010a60048036036101059190810190611612565b610c4e565b6040516101179190611a68565b60405180910390f35b61013a60048036036101359190810190611612565b610cfe565b6040516101479190611a8a565b60405180910390f35b61016a6004803603610165919081019061168f565b610ddf565b005b61018660048036036101819190810190611612565b610fbf565b6040516101939190611a46565b60405180910390f35b8073ffffffffffffffffffffffffffffffffffffffff163373ffffffffffffffffffffffffffffffffffffffff1614156101d557600080fd5b60008060008373ffffffffffffffffffffffffffffffffffffffff1673ffffffffffffffffffffffffffffffffffffffff168152602001908152602001600020805490509050610223611432565b6000803373ffffffffffffffffffffffffffffffffffffffff1673ffffffffffffffffffffffffffffffffffffffff168152602001908152602001600020848154811061026c57fe5b90600052602060002090600702016040518060e001604052908160008201548152602001600182018054600181600116156101000203166002900480601f0160208091040260200160405190810160405280929190818152602001828054600181600116156101000203166002900480156103285780601f106102fd57610100808354040283529160200191610328565b820191906000526020600020905b81548152906001019060200180831161030b57829003601f168201915b50505050508152602001600282018054600181600116156101000203166002900480601f0160208091040260200160405190810160405280929190818152602001828054600181600116156101000203166002900480156103ca5780601f1061039f576101008083540402835291602001916103ca565b820191906000526020600020905b8154815290600101906020018083116103ad57829003601f168201915b50505050508152602001600382018054600181600116156101000203166002900480601f01602080910402602001604051908101604052809291908181526020018280546001816001161561010002031660029004801561046c5780601f106104415761010080835404028352916020019161046c565b820191906000526020600020905b81548152906001019060200180831161044f57829003601f168201915b50505050508152602001600482018054600181600116156101000203166002900480601f01602080910402602001604051908101604052809291908181526020018280546001816001161561010002031660029004801561050e5780601f106104e35761010080835404028352916020019161050e565b820191906000526020600020905b8154815290600101906020018083116104f157829003601f168201915b50505050508152602001600582018054600181600116156101000203166002900480601f0160208091040260200160405190810160405280929190818152602001828054600181600116156101000203166002900480156105b05780601f10610585576101008083540402835291602001916105b0565b820191906000526020600020905b81548152906001019060200180831161059357829003601f168201915b50505050508152602001600682018054600181600116156101000203166002900480601f0160208091040260200160405190810160405280929190818152602001828054600181600116156101000203166002900480156106525780601f1061062757610100808354040283529160200191610652565b820191906000526020600020905b81548152906001019060200180831161063557829003601f168201915b50505050508152505090506000808473ffffffffffffffffffffffffffffffffffffffff1673ffffffffffffffffffffffffffffffffffffffff1681526020019081526020016000206040518060e00160405280848152602001836020015181526020018360400151815260200183606001518152602001836080015181526020018360a0015181526020018360c001518152509080600181540180825580915050906001820390600052602060002090600702016000909192909190915060008201518160000155602082015181600101908051906020019061073792919061146f565b50604082015181600201908051906020019061075492919061146f565b50606082015181600301908051906020019061077192919061146f565b50608082015181600401908051906020019061078e92919061146f565b5060a08201518160050190805190602001906107ab92919061146f565b5060c08201518160060190805190602001906107c892919061146f565b5050505050505050565b8173ffffffffffffffffffffffffffffffffffffffff163373ffffffffffffffffffffffffffffffffffffffff161461080a57600080fd5b80600160008473ffffffffffffffffffffffffffffffffffffffff1673ffffffffffffffffffffffffffffffffffffffff168152602001908152602001600020908051906020019061085d9291906114ef565b505050565b6000602052816000526040600020818154811061087b57fe5b906000526020600020906007020160009150915050806000015490806001018054600181600116156101000203166002900480601f01602080910402602001604051908101604052809291908181526020018280546001816001161561010002031660029004801561092e5780601f106109035761010080835404028352916020019161092e565b820191906000526020600020905b81548152906001019060200180831161091157829003601f168201915b505050505090806002018054600181600116156101000203166002900480601f0160208091040260200160405190810160405280929190818152602001828054600181600116156101000203166002900480156109cc5780601f106109a1576101008083540402835291602001916109cc565b820191906000526020600020905b8154815290600101906020018083116109af57829003601f168201915b505050505090806003018054600181600116156101000203166002900480601f016020809104026020016040519081016040528092919081815260200182805460018160011615610100020316600290048015610a6a5780601f10610a3f57610100808354040283529160200191610a6a565b820191906000526020600020905b815481529060010190602001808311610a4d57829003601f168201915b505050505090806004018054600181600116156101000203166002900480601f016020809104026020016040519081016040528092919081815260200182805460018160011615610100020316600290048015610b085780601f10610add57610100808354040283529160200191610b08565b820191906000526020600020905b815481529060010190602001808311610aeb57829003601f168201915b505050505090806005018054600181600116156101000203166002900480601f016020809104026020016040519081016040528092919081815260200182805460018160011615610100020316600290048015610ba65780601f10610b7b57610100808354040283529160200191610ba6565b820191906000526020600020905b815481529060010190602001808311610b8957829003601f168201915b505050505090806006018054600181600116156101000203166002900480601f016020809104026020016040519081016040528092919081815260200182805460018160011615610100020316600290048015610c445780601f10610c1957610100808354040283529160200191610c44565b820191906000526020600020905b815481529060010190602001808311610c2757829003601f168201915b5050505050905087565b60016020528060005260406000206000915090508054600181600116156101000203166002900480601f016020809104026020016040519081016040528092919081815260200182805460018160011615610100020316600290048015610cf65780601f10610ccb57610100808354040283529160200191610cf6565b820191906000526020600020905b815481529060010190602001808311610cd957829003601f168201915b505050505081565b6060600160008373ffffffffffffffffffffffffffffffffffffffff1673ffffffffffffffffffffffffffffffffffffffff1681526020019081526020016000208054600181600116156101000203166002900480601f016020809104026020016040519081016040528092919081815260200182805460018160011615610100020316600290048015610dd35780601f10610da857610100808354040283529160200191610dd3565b820191906000526020600020905b815481529060010190602001808311610db657829003601f168201915b50505050509050919050565b8673ffffffffffffffffffffffffffffffffffffffff163373ffffffffffffffffffffffffffffffffffffffff161415610e1857600080fd5b60008060008973ffffffffffffffffffffffffffffffffffffffff1673ffffffffffffffffffffffffffffffffffffffff1681526020019081526020016000208054905090506000808973ffffffffffffffffffffffffffffffffffffffff1673ffffffffffffffffffffffffffffffffffffffff1681526020019081526020016000206040518060e001604052808381526020018681526020018581526020018981526020018881526020018481526020018781525090806001815401808255809150509060018203906000526020600020906007020160009091929091909150600082015181600001556020820151816001019080519060200190610f2092919061146f565b506040820151816002019080519060200190610f3d92919061146f565b506060820151816003019080519060200190610f5a92919061146f565b506080820151816004019080519060200190610f7792919061146f565b5060a0820151816005019080519060200190610f9492919061146f565b5060c0820151816006019080519060200190610fb192919061146f565b505050505050505050505050565b60606000808373ffffffffffffffffffffffffffffffffffffffff1673ffffffffffffffffffffffffffffffffffffffff168152602001908152602001600020805480602002602001604051908101604052809291908181526020016000905b8282101561142757838290600052602060002090600702016040518060e001604052908160008201548152602001600182018054600181600116156101000203166002900480601f0160208091040260200160405190810160405280929190818152602001828054600181600116156101000203166002900480156110e55780601f106110ba576101008083540402835291602001916110e5565b820191906000526020600020905b8154815290600101906020018083116110c857829003601f168201915b50505050508152602001600282018054600181600116156101000203166002900480601f0160208091040260200160405190810160405280929190818152602001828054600181600116156101000203166002900480156111875780601f1061115c57610100808354040283529160200191611187565b820191906000526020600020905b81548152906001019060200180831161116a57829003601f168201915b50505050508152602001600382018054600181600116156101000203166002900480601f0160208091040260200160405190810160405280929190818152602001828054600181600116156101000203166002900480156112295780601f106111fe57610100808354040283529160200191611229565b820191906000526020600020905b81548152906001019060200180831161120c57829003601f168201915b50505050508152602001600482018054600181600116156101000203166002900480601f0160208091040260200160405190810160405280929190818152602001828054600181600116156101000203166002900480156112cb5780601f106112a0576101008083540402835291602001916112cb565b820191906000526020600020905b8154815290600101906020018083116112ae57829003601f168201915b50505050508152602001600582018054600181600116156101000203166002900480601f01602080910402602001604051908101604052809291908181526020018280546001816001161561010002031660029004801561136d5780601f106113425761010080835404028352916020019161136d565b820191906000526020600020905b81548152906001019060200180831161135057829003601f168201915b50505050508152602001600682018054600181600116156101000203166002900480601f01602080910402602001604051908101604052809291908181526020018280546001816001161561010002031660029004801561140f5780601f106113e45761010080835404028352916020019161140f565b820191906000526020600020905b8154815290600101906020018083116113f257829003601f168201915b5050505050815250508152602001906001019061101f565b505050509050919050565b6040518060e00160405280600081526020016060815260200160608152602001606081526020016060815260200160608152602001606081525090565b828054600181600116156101000203166002900490600052602060002090601f016020900481019282601f106114b057805160ff19168380011785556114de565b828001600101855582156114de579182015b828111156114dd5782518255916020019190600101906114c2565b5b5090506114eb919061156f565b5090565b828054600181600116156101000203166002900490600052602060002090601f016020900481019282601f1061153057805160ff191683800117855561155e565b8280016001018555821561155e579182015b8281111561155d578251825591602001919060010190611542565b5b50905061156b919061156f565b5090565b61159191905b8082111561158d576000816000905550600101611575565b5090565b90565b6000813590506115a381611c9e565b92915050565b600082601f8301126115ba57600080fd5b81356115cd6115c882611b72565b611b45565b915080825260208301602083018583830111156115e957600080fd5b6115f4838284611c4b565b50505092915050565b60008135905061160c81611cb5565b92915050565b60006020828403121561162457600080fd5b600061163284828501611594565b91505092915050565b6000806040838503121561164e57600080fd5b600061165c85828601611594565b925050602083013567ffffffffffffffff81111561167957600080fd5b611685858286016115a9565b9150509250929050565b600080600080600080600060e0888a0312156116aa57600080fd5b60006116b88a828b01611594565b975050602088013567ffffffffffffffff8111156116d557600080fd5b6116e18a828b016115a9565b965050604088013567ffffffffffffffff8111156116fe57600080fd5b61170a8a828b016115a9565b955050606088013567ffffffffffffffff81111561172757600080fd5b6117338a828b016115a9565b945050608088013567ffffffffffffffff81111561175057600080fd5b61175c8a828b016115a9565b93505060a088013567ffffffffffffffff81111561177957600080fd5b6117858a828b016115a9565b92505060c088013567ffffffffffffffff8111156117a257600080fd5b6117ae8a828b016115a9565b91505092959891949750929550565b600080604083850312156117d057600080fd5b60006117de85828601611594565b92505060206117ef858286016115fd565b9150509250929050565b6000806040838503121561180c57600080fd5b600061181a858286016115fd565b925050602061182b85828601611594565b9150509250929050565b60006118418383611969565b905092915050565b600061185482611bae565b61185e8185611bdc565b93508360208202850161187085611b9e565b8060005b858110156118ac578484038952815161188d8582611835565b945061189883611bcf565b925060208a01995050600181019050611874565b50829750879550505050505092915050565b60006118c982611bc4565b6118d38185611bfe565b93506118e3818560208601611c5a565b6118ec81611c8d565b840191505092915050565b600061190282611bb9565b61190c8185611bed565b935061191c818560208601611c5a565b61192581611c8d565b840191505092915050565b600061193b82611bb9565b6119458185611bfe565b9350611955818560208601611c5a565b61195e81611c8d565b840191505092915050565b600060e0830160008301516119816000860182611a28565b506020830151848203602086015261199982826118f7565b915050604083015184820360408601526119b382826118f7565b915050606083015184820360608601526119cd82826118f7565b915050608083015184820360808601526119e782826118f7565b91505060a083015184820360a0860152611a0182826118f7565b91505060c083015184820360c0860152611a1b82826118f7565b9150508091505092915050565b611a3181611c41565b82525050565b611a4081611c41565b82525050565b60006020820190508181036000830152611a608184611849565b905092915050565b60006020820190508181036000830152611a828184611930565b905092915050565b60006020820190508181036000830152611aa481846118be565b905092915050565b600060e082019050611ac1600083018a611a37565b8181036020830152611ad38189611930565b90508181036040830152611ae78188611930565b90508181036060830152611afb8187611930565b90508181036080830152611b0f8186611930565b905081810360a0830152611b238185611930565b905081810360c0830152611b378184611930565b905098975050505050505050565b6000604051905081810181811067ffffffffffffffff82111715611b6857600080fd5b8060405250919050565b600067ffffffffffffffff821115611b8957600080fd5b601f19601f8301169050602081019050919050565b6000819050602082019050919050565b600081519050919050565b600081519050919050565b600081519050919050565b6000602082019050919050565b600082825260208201905092915050565b600082825260208201905092915050565b600082825260208201905092915050565b6000611c1a82611c21565b9050919050565b600073ffffffffffffffffffffffffffffffffffffffff82169050919050565b6000819050919050565b82818337600083830152505050565b60005b83811015611c78578082015181840152602081019050611c5d565b83811115611c87576000848401525b50505050565b6000601f19601f8301169050919050565b611ca781611c0f565b8114611cb257600080fd5b50565b611cbe81611c41565b8114611cc957600080fd5b5056fea365627a7a7231582052573ea43382f6a7728d92150d7360969a40d59eb867d5bbe1f071a33ecf2d7c6c6578706572696d656e74616cf564736f6c63430005100040",
  "source": "pragma solidity ^0.5.0;\r\npragma experimental ABIEncoderV2;\r\n\r\ncontract SimpleStorage {\r\n  struct Records {\r\n  \tuint recordCount;\r\n  \tstring _firstName;\r\n  \tstring _lastName;\r\n  \tstring doctor;\r\n  \tstring treatmentSite;\r\n  \tstring date;\r\n  \tstring ipfsHash;\r\n  }\r\n\r\n  mapping(address => Records[]) public users;\r\n  mapping(address => string) public status;\r\n\r\n  function set(address _address, string memory _doctor, string memory _site, string memory x, string memory _firstName, string memory _lastName, string memory _date) public{\r\n  \trequire(msg.sender != _address);\r\n    uint index = users[_address].length;\r\n  \tusers[_address].push(Records(index, _firstName, _lastName, _doctor, _site, _date, x));\r\n  }\r\n\r\n  function setUser(address _address, string memory _status) public{\r\n    require(msg.sender == _address);\r\n    status[_address] = _status;\r\n    //return users[_address].length;\r\n  }\r\n  function getUser(address _address) public view returns (string memory){\r\n      return status[_address];\r\n  }\r\n\r\n  function getRecords(address _address) public view returns (Records[] memory){\r\n      return users[_address];\r\n  }\r\n\r\n  function setPermission(uint i, address toAddress) public{\r\n  \t//users[toAddress].push(users[msg.sender][i]);\r\n    require(msg.sender != toAddress);\r\n    uint index = users[toAddress].length;\r\n    Records memory parsedRecord = users[msg.sender][i];\r\n    users[toAddress].push(Records(index, parsedRecord._firstName, parsedRecord._lastName, parsedRecord.doctor, parsedRecord.treatmentSite, parsedRecord.date, parsedRecord.ipfsHash));\r\n  }\r\n\r\n}",
  "sourcePath": "C:\\Users\\KMH\\Desktop\\Project\\Medical-Records---Ethereum\\Medical\\contracts\\SimpleStorage.sol",
  "compiler": {
    "name": "solc",
    "version": "0.5.16+commit.9c3226ce.Emscripten.clang"
  },
  "schemaVersion": "3.0.23",
  "updatedAt": "2020-05-10T06:38:20.047Z",
  "networkType": "ethereum",
  "devdoc": {
    "methods": {}
  },
  "userdoc": {
    "methods": {}
  }
}